:10000000401F002051530000EDF000000953000094
:1000100009530000095300000953000000000000CC
:10002000000000000000000000000000C5430000C8
:1000300009530000000000006D4300000953000058
:10004000A5440000A5440000A5440000A54400000C
:10005000A5440000A5440000A5440000A5440000FC
:10006000A5440000A5440000A5440000A5440000EC
:10007000A5440000A5440000A5440000A5440000DC
:10008000A5440000A5440000A5440000A5440000CC
:10009000A5440000A5440000A5440000A5440000BC
:1000A000A5440000A5440000A5440000A5440000AC
:1000B000A5440000A5440000A5440000A54400009C
:1000C000A5440000A5440000A5440000A54400008C
:1000D000A5440000A5440000A5440000A54400007C
:1000E000A5440000A5440000A5440000A54400006C
:1000F000A5440000A5440000A5440000A54400005C
:1001000053B94AB9002908BF00281CBF4FF0FF317E
:100110004FF0FF3000F00CB8ADF1080C6DE904CEE3
:1001200000F008F8DDF804E0DDE9022304B07047D0
:10013000704700BF2DE9F04F07468C460846099EE0
:1001400015463C461946002B40F0C6808242B2FA62
:1001500082F746D94FB1C7F1200E24FA0EFE00FAFD
:1001600007F3BD404EEA030CBC404FEA15481FFAA6
:1001700085FEBCFBF8F9220C08FB19C309FB0EFA3B
:1001800042EA03439A4528D9EB1809F1FF3004D21B
:100190009A4502D9A9F102002B44A3EB0A03A4B2A9
:1001A000B3FBF8F208FB123302FB0EFE44EA0344F1
:1001B000A64514D92C1902F1FF3303D2A64501D963
:1001C000931E2C44A4EB0E0443EA00401EB1FC40F5
:1001D000002334607360BDE8F08F4846DDE71346C6
:1001E000F0E702B9FFDE87BB831A01214FEA154E03
:1001F000AAB2B3FBFEFC200C0EFB1C330CFB02F876
:1002000040EA0343984563D9EB180CF1FF3004D260
:10021000984502D9ACF102002B44A3EB0803A4B229
:10022000B3FBFEFC0EFB1C330CFB02F244EA03445E
:10023000A2424FD92C190CF1FF3304D2A24202D9A9
:10024000ACF102032C44A41ABEE7C7F1200C20FA3B
:100250000CF800FA07F324FA0CFCBD404CEA030248
:100260004FEA154EABB2B8FBFEFC110C0EFB1C8026
:100270000CFB03F941EA0040814504FA07F423D955
:1002800028180CF1FF3104D2814502D9ACF10201EA
:100290002844A0EB090092B2B0FBFEFC0EFB1C0050
:1002A0000CFB03F842EA004398450FD9EB180CF118
:1002B000FF3204D2984502D9ACF102022B44A3EBE1
:1002C000080342EA014191E76146E2E76246F6E748
:1002D0006046A2E76346B6E7834205D90EB1C6E998
:1002E00000700021084676E7B3FA83F181B98342B2
:1002F00001D3BA420AD8BC1A60EB030301209C4622
:10030000002E68D0C6E9004C002164E70846F7E7F4
:10031000C1F1200C8B4022FA0CF41C4302FA01F5C7
:1003200000FA01F327FA0CF220FA0CFB4FEA144909
:100330001343BBFBF9F81FFA84FE09FB18BB1A0C28
:1003400008FB0EFA42EA0B42924507FA01F73ED942
:10035000A21808F1FF3004D2924502D9A8F1020098
:100360002244A2EB0A029BB2B2FBF9F809FB182265
:1003700008FB0EFE43EA024296452AD9A21808F16C
:10038000FF3304D2964502D9A8F10203224443EA7E
:100390000040A0FB0593A2EB0E029A42CE4698467F
:1003A00002D306D14F4504D2B9EB050E63EB040826
:1003B000013886B1B7EB0E0362EB080707FA0CFCB5
:1003C000CB404CEA0303CF40C6E900379CE74046E8
:1003D000C7E74346DBE73146FDE60000084259D057
:1003E000B0B582B000AF0139072905D8DFE801F0C8
:1003F0003E43044A0404044800206C4688B06B461F
:1004000013F1100240D00C211AB1042901DD224D54
:100410005D6112B1082900DD98610B2937DD4FF0CD
:100420000C0C3AB10321397100217971B971F9715C
:100430007868186100216FF300016FF341016FF3D9
:1004400082016FF3C501032363F388110CF47B7CF5
:100450006CF352216FF3DE416FF3DF7100230F481D
:1004600002F0C4FFA5460837BD46B0BD012000F02C
:10047000A3FD0120C1E7022000F09EFD0220BCE7A1
:100480000420BAE70320B8E76FF00041BCE76FF043
:100490001B0CC6E7704700BFF801010024010100F2
:1004A000B0B582B000AF07F087FFB0B305466C4629
:1004B00088B06B4613F110026DD00C211AB10429DB
:1004C00001DD3B48586112B1082900DD9D610B290F
:1004D00064DD4FF00C0C3AB10321397100217971C0
:1004E000B971F9717868186100216FF300016FF339
:1004F00041016FF382016FF3C501012363F388119A
:100500000CF47B7C6CF352216FF3DE416FF3DF71EF
:100510000023284802F06AFFA546274807F078FD27
:100520000546A8B36C4688B06B4613F1100238D06C
:100530000C211AB1042901DD2048586112B10829A3
:1005400000DD9D610B292FDD4FF00C0C3AB103212A
:10055000397100217971B971F971786818610021D8
:100560006FF300016FF341016FF382016FF3C50177
:10057000012363F388110CF47B7C6CF352216FF33D
:10058000DE416FF3DF7100230A4802F02FFFA5461A
:100590000837BD46B0BD6FF000418FE76FF01B0C10
:1005A00099E76FF00041C4E76FF01B0CCEE700BF86
:1005B0000C02010024010100DD03000028020100FB
:1005C0002DE9F0418AB000AF02233B716C4688B040
:1005D0006B4613F1100200F0D6800D261AB1042EDE
:1005E00001DDA8495961022139701AB1082E01DDD7
:1005F000A54999612AB103F11C010020002800F0EF
:10060000C5800C2E40F3CB800D2642B103213971F9
:1006100000217971B9710121F9717868186100219F
:100620006FF300016FF341016FF382016FF3C501B6
:10063000032363F38811C6F3090666F352216FF3AF
:10064000DE416FF3DF710023904802F0CFFEA54634
:10065000FFF726FF0EF0B3F90446B0B36E4688B03C
:100660006B4613F1100200F09D800C211AB1042991
:1006700001DD8748586112B1082900DD9C610B2912
:1006800040F393800C243AB1032139710021797130
:10069000B971F9717868186100216FF300016FF387
:1006A00041016FF382016FF3C501012363F38811E8
:1006B00004F47B7363F352216FF3DE416FF3DF7158
:1006C0000023724802F092FEB54600F0E1FB0446BA
:1006D000A0B36E4688B06B4613F1100268D00C21AF
:1006E0001AB1042901DD6B48586112B1082900DDF7
:1006F0009C610B295FDD0C243AB103213971002183
:100700007971B971F9717868186100216FF300018E
:100710006FF341016FF382016FF3C501012363F3AE
:10072000881104F47B7363F352216FF3DE416FF39E
:10073000DF710023554802F059FEB546564B7B62E7
:1007400002233B7100247C71BC71FC717B683B62AD
:10075000214664F3000164F3410164F3820164F310
:10076000C501032363F38811082363F3522164F363
:10077000DE4164F3DF71234607F12002434802F0B3
:1007800035FE214648E06FF0004627E707F1280CC8
:1007900084441CF828CC01F801CB01302EE76FF01F
:1007A0001B0632E76FF0004160E76FF01B046AE759
:1007B0006FF0004194E76FF01B049DE76FF000417C
:1007C00046E013295BDD14213AB105203871002081
:1007D0007871B871F871786818616FF300056FF37C
:1007E00041056FF382056FF3C505032363F3881595
:1007F00001F47D7161F352256FF3DE456FF3DF7510
:1008000000232946214802F0F1FDB54640F2676019
:1008100000210DF04DF821464C1C002901F001018A
:10082000B8BF4942002007F00FFE07F1080000F0B2
:10083000CFFA0028EAD1B7F90CE0B7F90AC0B7F946
:1008400008006E468AB06B4613F11002B6D0142130
:100850002AB1042903DDDFF84480C3F814801AB1FB
:10086000082901DDC3F818E01AB10C2901DDC3F82D
:100870001CC0002AA5D01029A3DD1862A1E76FF0E3
:100880001B01A1E7480201005802010024010100F8
:100890006C0201008C020100AC020100B4020100F4
:1008A00000B5A1B00378042B66D8DFE803F003405D
:1008B000688EB4000379032B13D8DFE803F0020637
:1008C0000A0E684B01221A7056E0674B01221A701B
:1008D00052E0654B01221A704EE0624B01221A7001
:1008E0004AE0624B1F9302238DF8043000238DF8F9
:1008F00005308DF806308DF80730019A1E921946A2
:1009000063F3000163F3410163F3820163F3C50103
:10091000032262F38811082262F3522163F3DE415D
:1009200063F3DF711EAA524802F060FD24E0514BD0
:10093000199302238DF8043000238DF805308DF8CB
:1009400006308DF80730019A1892194663F30001BA
:1009500063F3410163F3820163F3C501012262F392
:100960008811082262F3522163F3DE4163F3DF71E1
:1009700018AA3F4802F03AFD21B05DF804FB3E4B57
:10098000139302238DF8043000238DF805308DF881
:1009900006308DF80730019A1292194663F3000170
:1009A00063F3410163F3820163F3C501012262F342
:1009B0008811082262F3522163F3DE4163F3DF7191
:1009C00012AA2B4802F012FDD6E72C4B0D930223FE
:1009D0008DF8043000238DF805308DF806308DF841
:1009E0000730019A0C92194663F3000163F3410149
:1009F00063F3820163F3C501012262F388110822C7
:100A000062F3522163F3DE4163F3DF710CAA1848ED
:100A100002F0ECFCB0E71A4B079302238DF8043088
:100A200000238DF805308DF806308DF80730019AD7
:100A30000692194663F3000163F3410163F38201F7
:100A400063F3C501012262F38811082262F3522187
:100A500063F3DE4163F3DF7106AA054802F0C6FCCA
:100A60008AE700BFC9120020C8120020DC02010082
:100A700064010100E8020100F80201000403010022
:100A80000C03010010B586B0144600228DF8042036
:100A90008DF80510029303920494059201A90AF0BF
:100AA00023F8034B984200D1002006B010BD00BFD0
:100AB0000000AD0B00B587B04FF0010C8DF804C0FD
:100AC0008DF80510029300230393049205931A46B0
:100AD00001A90AF009F8034B984200D1002007B0A1
:100AE0005DF804FB0000AD0B00B585B08DF80C007F
:100AF0008DF80D1000230093022303AA68210A48F1
:100B0000FFF7C0FF50B942F21073084A12780AB9D1
:100B1000013BFAD1054A0021117013B105B05DF80F
:100B200004FB0348FAE700BFA0030100C91200203C
:100B30000700AD0B30B587B01446154D2B4603F8B2
:100B4000010B18460EF05CFB002201920292039208
:100B50000492059268238DF80530013402940495BF
:100B600001A90C4809F0C0FF0B4B98420BD142F28F
:100B700010730A4A12780AB9013BFAD1074A0021D8
:100B8000117013B1084607B030BD0548FBE700BF40
:100B900078090020A00301000000AD0BC91200205D
:100BA0000700AD0BF0B587B002AF0C461546F871E3
:100BB000002300930123FA1D68213448FFF762FFE8
:100BC000064600285ED142F21070314B1B780BB9FB
:100BD0000138FAD12E4B00221A70002851D02B4632
:100BE000224668212948FFF765FF064668B942F2A8
:100BF0001073284A12780AB9013BFAD1254A00211C
:100C00001170002B3ED1244E3CE06D4688B002AB03
:100C100013F110022FD00C211AB1042901DD1F4855
:100C2000586112B1082900DD9E610B2926DD0C24D4
:100C30003AB10321397300217973B973F973F868F4
:100C4000186100216FF300016FF341016FF382011E
:100C50006FF3C501012363F3881104F47B7464F31B
:100C600052216FF3DE416FF3DF7100230C4802F075
:100C7000BDFBAD4606E06FF00041CDE76FF01B0411
:100C8000D6E7054E30461437BD46F0BDA00301003F
:100C9000C9120020C81200200700AD0B1803010084
:100CA00064010100F0B58DB000AF002205210320E2
:100CB00003F0EAFA032003F0CBFA3F4BFB62022376
:100CC0003B7100247C71BC71FC717B68BB62214666
:100CD00064F3000164F3410164F3820164F3C5012C
:100CE000032565F38811082363F3522164F3DE4181
:100CF00064F3DF71234607F12802304802F076FBE7
:100D0000BC60FC603C617C610423BB60FD604FF013
:100D1000CC733B6107233B752346294A07F1080141
:100D2000284809F04FFE284B98423FD004466E46B3
:100D300088B06B4613F1100232D00C211AB104298D
:100D400001DD2248586112B1082900DD9C610B29A0
:100D500029DD0C253AB10321397100217971B9716E
:100D6000F9717868186100216FF300016FF3410198
:100D70006FF382016FF3C501012363F3881105F45A
:100D80007B7565F352216FF3DE416FF3DF71002352
:100D90000A4802F02BFBB54620463437BD46F0BD6D
:100DA0006FF00041CAE76FF01B05D3E7054809F073
:100DB0006DFE0024F0E700BF340301006401010070
:100DC000A1080000A00301000000AD0B4C030100CE
:100DD000F0B585B000AF0446062207F108013B20BC
:100DE000FFF7E0FE054608B9002346E06E4688B0EE
:100DF0006B4613F110022FD00C211AB1042901DD2A
:100E00002148586112B1082900DD9D610B2926DDBA
:100E10000C243AB10321397100217971B971F9714A
:100E20007868186100216FF300016FF341016FF3DF
:100E300082016FF3C501012363F3881104F47B730E
:100E400063F352216FF3DE416FF3DF7100230F482C
:100E500002F0CCFAB54612E06FF00041CDE76FF03A
:100E60001B04D6E7C3F1050207F110010A4412F88A
:100E7000082C04F8012B0133DBB2052BF2D92846EC
:100E80001437BD46F0BD00BF6803010064010100D6
:100E9000B0B58CB000AF424BFB6202253D7100241F
:100EA0007C71BC71FC717B68BB62214664F30001FC
:100EB00064F3410164F3820164F3C501032363F326
:100EC0008811082363F3522164F3DE4164F3DF7178
:100ED000234607F12802334802F088FABC60FC6020
:100EE0003C61BC826FF0FC03BB6007233B730423AF
:100EF0007B734FF47A733B8244F620633B82BD746C
:100F00002346224607F10801274808F073FF274BC4
:100F1000984234D06D4688B06B4613F1100238D039
:100F20000C211AB1042901DD214C5C6112B10829A0
:100F300000DD98610B292FDD0C243AB103213971B2
:100F400000217971B971F9717868186100216FF326
:100F500000016FF341016FF382016FF3C5010123BB
:100F600063F3881104F47B7464F352216FF3DE4160
:100F70006FF3DF7100230B4802F038FAAD4601230E
:100F800032220C49084808F0CBFF00203037BD461C
:100F9000B0BD6FF00041C4E76FF01B04CDE700BFA8
:100FA000A803010054010100300000200000AD0B37
:100FB000C403010008000020B0B582B000AF0446B1
:100FC0006D4688B06B4613F1100236D00C211AB171
:100FD000042901DD2348586112B1082900DD9C6114
:100FE0000B292DDD4FF00C0C3AB103213971002192
:100FF0007971B971F9717868186100216FF3000196
:101000006FF341016FF382016FF3C501032363F3B3
:1010100088110CF47B7C6CF352216FF3DE416FF38B
:10102000DF710023104802F0E1F9AD46012C0AD02F
:10103000022C0FD00837BD46B0BD6FF00041C6E7A7
:101040006FF01B0CD0E7012364220849084808F020
:1010500067FFEFE7012364220649054808F060FFB7
:10106000E8E700BFE403010054010100080000208C
:101070003000002020000020F8B5064638B1307856
:101080007578B47804EB80043444002712E00B4CEC
:10109000C42322460A490B480DF08BFEC42120468A
:1010A0000DF080FEEBE7013420460EF096F801309B
:1010B00004440137AF42F6D3A01BF8BD0804010079
:1010C00038040100500401002DE9F04F93B0019164
:1010D000934603931C9F064668B1019BCBB196F8DB
:1010E0000280CDF80880B8F1000F17D017F0010F7B
:1010F0001FD1002313E0AC4C40F25F332246AB49D2
:10110000AB480DF056FE40F25F3120460DF04AFE2E
:10111000E3E73046FFF7B0FF0190E0E7002396F8E1
:1011200003A0BAF1000F06D017F0020F1DD1002264
:1011300002E00123F3E7002202B9C3B13578AA0027
:10114000049206EB8505BBF1000F1CD0002B40F08C
:101150008680029B002B00F0908017F0040F40F077
:1011600090800020814680467CE00122E4E7BBF1CC
:10117000000F03D0039A01993046D847019C2046BE
:1011800013B0BDE8F08F019C03BB029BA3B317F023
:10119000040928D01D444FF0000924E0044401351F
:1011A00008F10108D0451BD22A78002356F82220E6
:1011B000194658460DF027FC002FEFD01E9B99458D
:1011C000ECD227F8190009F10109E7E74FF0000810
:1011D000C146CDF804A0DDF808A01C971D9FE1E7EB
:1011E000DDF804A01C9F07F0050301934FF00008F1
:1011F000CDF808B0B34623E0DDF80890F3E700230C
:101200001E4613B117F0010F03D196B917F0020F64
:101210000FD00023194602980DF0F5FB1D9B3BB142
:101220001E9B994504D21D9B23F8190009F1010961
:10123000044416B1019B03B9013C013508F10108D2
:10124000D0459CD22B785BF823205A4B9A42D6D3B8
:10125000594B9A4201D30023D2E70123D0E70DA8CE
:101260004FF0000918B1029A29460DF0C9FF029B00
:101270001D440024CDF814B01CE0002081468046B7
:10128000F0E7C14609A84FF00008EBE70023002B68
:101290004ED017F0010F2CD0B8F10F0F1AD808F16B
:1012A00001032A7812A9884408F8142C5FFA83F8FD
:1012B00001350134544580F085802B7856F8233071
:1012C0003C4A9342E2D33C4A934201D30023DEE7F7
:1012D0000123DCE7DFF8D0B040F2F2335A46374959
:1012E00033480DF066FD40F2F23158460DF05AFDDC
:1012F000D5E717F0040FDBD0B9F10F0F09D809F1CA
:1013000001032A7812A9894409F8242C5FFA83F989
:10131000CEE7DFF894B040F2F5335A462849244826
:101320000DF047FD40F2F53158460DF03BFDE6E784
:1013300017F0020F1BD0B8F10F0F09D808F1010305
:101340002A7812A9884408F8142C5FFA83F8AFE7CA
:10135000DFF854B04FF47F735A46184914480DF023
:1013600028FD4FF47F7158460DF01CFDE6E7B9F1FA
:101370000F0F09D809F101032A7812A9894409F845
:10138000242C5FFA83F993E7DFF81CB040F2FF33B7
:101390005A460B4906480DF00CFD40F2FF31584605
:1013A0000DF000FDE6E700BF080401007004010035
:1013B0005004010080FE0000EC2A01008C040100B2
:1013C000AC040100DDF814B033788DF84430737844
:1013D00043448DF8453017F0020F0AD000238DF8F2
:1013E000473017F0010F06D117F0040F32D1002358
:1013F00002E04B46F3E700238DF846303068089052
:1014000011983060039F3A4604993046D847041E2D
:10141000FFF6B5AE0898306003973A46494609A8EA
:10142000D847002843DB27180298049B184401463C
:101430005144DDF80C904A46019B591A2846D8477A
:10144000041EFFF69CAE3D19002701965E46DDF8AE
:1014500074B015E04B46CFE74FF0000A4A46012131
:101460000DF11F00B047002823DB054453462246F8
:10147000494630460DF0C7FA00281CDB0544013709
:10148000B8450EDD12AB3B4413F8143C8DF81F3009
:10149000019A52F82340BBF1000FDDD03BF817A0B2
:1014A000DCE7039A00210846B0472C4667E604466D
:1014B00065E6044663E6044661E600BF38B50446C7
:1014C000436803F003038160022B03D9032B02D18D
:1014D00000680EE063B9084D45232A4607490848CD
:1014E0000DF067FC452128460DF05CFC002000E073
:1014F00000200023636038BDCC04010034190100D2
:101500005004010008B5024B1B68984708BD00BF96
:1015100038000020014B1860704700BF38000020E1
:1015200000B583B002460B4600210091024800F04E
:10153000F9FC03B05DF804FB0515000010B586B09A
:1015400004460390049100210591009103A90648E7
:1015500000F0E8FC059B049A934201DA0022E25471
:10156000059806B010BD00BFC5EA000038B50446B6
:101570008C46838B002A14DB03F007035A1F012AD1
:101580001BD9042B50D02F4C40F21B1322462E495E
:101590002E480DF00EFC40F21B1120460DF002FC0F
:1015A00038BDD0E900018CE80300002323606360AC
:1015B000012120460DF0BAFAF2E7D0E900018CE8EB
:1015C0000300002222606260062B0FD0052B1DD184
:1015D000002120460DF0AAFA20460DF0CEFA002890
:1015E000DED0A38B43F02003A383D9E7DCF80030DF
:1015F0003BB1E28B0132E283002BF9D01B68002B58
:10160000F6D1022120460DF091FAE5E70D4D40F2AA
:1016100009132A460E490D480DF0CBFB40F2091183
:1016200028460DF0BFFBD3E700210DF07FFA2046DE
:101630000DF0A3FA0028B3D0A38B43F02003A383BB
:10164000AEE700BFF00401003419010050040100AE
:10165000140501002DE9F04F83B004461646838B34
:1016600003F0070703F008080D4631B1B8F1000F89
:1016700012D1002300930193AAE0DFF8E09240F238
:1016800033134A46B649B7480DF093FB40F2331185
:1016900048460DF087FBE9E7012D13D0022D16D146
:1016A000A38B43F02003A3831434204609F04AFEA1
:1016B000002800F09C8186F31188BFF36F8F03B080
:1016C000BDE8F08FA38B43F01003A383ECE7A34D99
:1016D0004FF49E732A46A449A2480DF06AFB4FF4CA
:1016E0009E7128460DF05EFBDAE720460DF045FAC4
:1016F00005466FE0D4F818904A4669462046FFF741
:1017000035FF002511E0002F40F081802368002B79
:1017100000F08B8023691D68002D00F09480062165
:1017200020460DF003FA4FF00009A38B03F00708E1
:10173000B84500F00B81A268002A00F0098101225F
:1017400017461AB9009A002A00F0048143F00803F2
:10175000A38304F1140A504609F0F4FD002800F0B8
:10176000158186F31188BFF36F8F002F40F01F8122
:10177000009B2BB14B464246694620460DF03FFA8E
:1017800015B17A492046A8474FF02003EFF31186A0
:1017900083F31288BFF36F8F504609F0C3FD002812
:1017A00000F00B81504609F0DDFDA38B23F0080308
:1017B000A383A38B13F0100F00F00F8123F010030D
:1017C000A3830125A78B07F00707002D3FF46CAF1B
:1017D000022D8AD0002D3FF467AF012D8AD0032D52
:1017E00091D0042D3ED0052D40F0A080012F72D164
:1017F0002368002B7DD023699D68002D00F0878031
:10180000052120460DF092F94FF000098DE7534D68
:101810004FF4AB732A46564952480DF0CAFA4FF4BA
:10182000AB7128460DF0BEFA70E74C4D40F25713ED
:101830002A4650494B480DF0BCFA40F25711284651
:101840000DF0B0FA66E7DFF814814FF4AD7342464D
:10185000494944480DF0ADFA4FF4AD7140460DF0E2
:10186000A1FA5CE7022F0BD1E38BBBB923695D685A
:1018700015B3042120460DF059F94FF0000954E743
:10188000364D40F25D132A463C4936480DF091FA38
:1018900040F25D1128460DF085FAE5E72F4D4FF433
:1018A000AF732A4636492F480DF083FA4FF4AF71D3
:1018B00028460DF077FAD9E7DFF8A08040F26113EF
:1018C00042462D4927480DF074FA40F26111404616
:1018D0000DF068FACDE7214D4FF4B2732A4629493D
:1018E00020480DF066FA4FF4B27128460DF05AFA0E
:1018F0007EE71A4D40F265132A461E4919480DF03D
:1019000058FA40F2651128460DF04CFA73E7DFF8FB
:101910004C804FF4B4734246174912480DF049FA0F
:101920004FF4B47140460DF03DFA69E70B4D40F2BB
:101930006B132A4614490B480DF03BFA40F26B1129
:1019400028460DF02FFA0025A946EEE60022F7E61C
:101950000022F5E6002D7FF4F9AE2AE7F00401003D
:101960003C050100500401004C050100291A00004B
:10197000600501006C05010090050100A80501004B
:10198000C0050100D005010034190100DFF880B066
:10199000B9235A461F4920480DF00BFA51461F48FB
:1019A0000DF007FAB92158460DF0FCF9D9E64A4680
:1019B000414620460DF0C2F8DAE6154D8E232A4640
:1019C000174915480DF0F5F9514616480DF0F1F993
:1019D0008E2128460DF0E6F9E4E613F0200F04D03E
:1019E00023F02003A3830225ECE60025EAE6084D58
:1019F000B9232A46074908480DF0DBF92146074874
:101A00000DF0D7F9B92128460DF0CCF953E600BF07
:101A1000E80501001806010050040100300601002D
:101A200048060100600601002DE9F04104460D461C
:101A300000F114064FF02003EFF3118783F31288AF
:101A4000BFF36F8F304609F06DFC50B1304609F09E
:101A500089FCA5613A4601212046FFF7FBFDBDE860
:101A6000F081DFF820808E234246074907480DF0B9
:101A7000A0F9314606480DF09CF98E2140460DF044
:101A800091F9E3E7E8050100480601005004010070
:101A9000600601002DE9F84F044688460DF086F8EF
:101AA000061E58DB04F114074FF02003EFF31189F1
:101AB00083F31288BFF36F8F384609F033FCE8B127
:101AC000384609F04FFCA58B05F00705E38B4FF670
:101AD000FF72934256D02E46022D1FD02DB3042DF7
:101AE00023D0062D21D0052D53D0012D36D16FF0F6
:101AF00004064FF0000A534652461CE03C4D8E232C
:101B00002A463C493C480DF054F939463B480DF013
:101B100050F98E2128460DF045F9D1E70133E383D2
:101B20004FF0010A00231A4605E0B5FA85F35B0978
:101B30004FF0000A012242B10022C8F8002062687A
:101B400072B3C2F80080C4F8048073B34A4602211D
:101B50002046FFF77FFD3046BDE8F88F284E4FF452
:101B6000E4733246274924480DF023F94FF4E47119
:101B700030460DF017F96FF004064FF0000A534697
:101B80005246D8E76FF00A064FF0000A5346524615
:101B9000D1E76FF085064FF0000A53465246CAE778
:101BA000C4F80480C4F80080CFE7384609F0CAFBC7
:101BB00068B189F31188BFF36F8FBAF1000FCAD0F3
:101BC00000232A46414620460DF006F8C3E7DFF819
:101BD00020B0B9235A460C4907480DF0EAF83946B7
:101BE0000A480DF0E6F8B92158460DF0DBF8E0E7B9
:101BF000E8050100480601005004010060060100EC
:101C0000F0040100D00501001806010030060100B3
:101C100070B582B0044600230360436083604B7854
:101C2000252B02D04E1C01251FE0881CE37045E1E6
:101C3000237843F004032370B5B1013614E0237810
:101C400043F008032370F7E7237843F01003237071
:101C5000F2E7237843F020032370EDE7237843F085
:101C600040032370E8E7002545B33378203B102B71
:101C7000F9D801A252F823F0491C0000671C0000AB
:101C8000671C0000531C0000671C0000671C00005C
:101C9000671C0000671C0000671C0000671C000038
:101CA000671C00003F1C0000671C0000311C000086
:101CB000671C0000671C00005D1C0000237803F017
:101CC0004403442B5FD00196237843F080032370B4
:101CD00033782A2B5CD001A80CF0CEFF019B9E42EA
:101CE0000FD0237843F0800323706060DBB2C3F32E
:101CF0004003002854DB00221343227863F341029F
:101D00002270019B01931B782E2B14BF002301230B
:101D1000627863F341026270002B43D0019B5A1C2E
:101D200001925B782A2B3FD001A80CF0A5FFA060A0
:101D30002378C3F3400300283EDB002213432278BC
:101D400063F341022270019803784C3B2E2B00F282
:101D50009D80DFE803F0909B9B9B9B9B9B9B9B9BA9
:101D60009B9B9B9B9B9B9B9B9B9B9B9B9B9B9B9BC3
:101D70009B9B339B579B459B9B9B9B9B9B9B899BC7
:101D80009B9B9B9B820023786FF3861323709AE7BB
:101D9000637843F001036370334601330193B1E785
:101DA0000122A9E70198CFE7637843F00403637049
:101DB000104601300190C7E70122BFE7421C43787B
:101DC000682B06D06378022161F3C6036370104666
:101DD0001EE06378012262F3C6036370023017E0ED
:101DE000421C43786C2B06D06378032161F3C60351
:101DF000637010460CE06378042262F3C6036370DC
:101E0000023005E06378052262F3C6036370013097
:101E100010F8013BE370A3F14102372A7DD8DFE8D7
:101E200002F05E7C7C7C5E5E5E7C7C7C7C7C7C7C70
:101E30007C7C7C7C7C7C7C7C7C4F7C7C7C7C7C7C0F
:101E40007C7C5E7C4F3A5E5E5E7C3A7C7C7C7C6512
:101E50004F717C7C717C4F7C7C4F6378062262F3EF
:101E6000C60363700130D3E76378072262F3C603C9
:101E700063700130CCE76378082262F3C6036370B5
:101E80000130237843F002032370C1E763786FF3D6
:101E9000C6036370BCE7A278012161F30202A2705D
:101EA000627802F07802402A10D0632B13D0237896
:101EB000C3F34002154365F34103237002B070BDC4
:101EC000A278022161F30202A270E9E7217841F0D1
:101ED00001012170E9E7151E18BF0125E7E7A37886
:101EE000042262F30203A3700125E0E7A378032232
:101EF00062F30203A370637803F07803402BD6D11A
:101F00000125D4E7A378032262F30203A370637868
:101F100013F0780FCBD00125C9E7237843F00103F4
:101F20002370C4E72DE9F04F91B006460D46914667
:101F30000393002499F80000002800F0D58225289A
:101F400008D009F101092946B0470028C0F2CD8226
:101F50000134EFE700230493059306930793089356
:101F60000993494606A8FFF753FE02909DF81930E1
:101F700013F0010F00F09780039B1A1D03921F6856
:101F8000002FC0F288809DF8193013F0040F00F084
:101F90009C80039B1A1D0392D3F800A0BAF1000F96
:101FA000C0F28A800023079308939DF81A3003F04B
:101FB00007039DF81910C1F3C301012B00F08E80B7
:101FC000022B00F0D380042B00F02481032B00F0BF
:101FD0003B819DF8188018F0030B40F03B819DF881
:101FE0001B30253B532B00F2E681DFE813F0400164
:101FF000E401E401E401E401E401E401E401E401B9
:10200000E401E401E401E401E401E401E401E401A8
:10201000E401E401E401E401E401E401E401E40198
:10202000E401E401E401E401E401E401E401E40188
:10203000E401E401E401E401E401E401E401E40178
:10204000E401E401E401E401E401E401E401E40168
:10205000E401E4018101E401E401E401E401E401BB
:10206000E401E401E401E401E4015E016701E4014B
:10207000E401E401E4016701E401E401E401E401B5
:10208000BE018101A201E401E4014D01E4018101ED
:10209000E401E40181019DF8183043F004038DF858
:1020A00018307F426FE79DF91830002B02DB4FF0AC
:1020B000FF3768E7079F66E79DF819306FF3410324
:1020C0008DF819304FF0FF3A6CE713F0020F02D091
:1020D000DDF820A066E74FF0FF3A63E7CB1E042B44
:1020E00004D8DFE803F00B1D29353500039B1A1DCA
:1020F00003921B68DA170493059206E0039B1A1DEE
:1021000003921B68DA1704930592012928D002294B
:102110007FF45FAFBDF91030DA170493059258E7EA
:10212000039B073323F0070303F108020392D3E96B
:102130000023CDE90423E8E7039B073323F00703DB
:1021400003F108020392D3E90023CDE90423DCE77D
:10215000039B1A1D03921B68DA1704930592D4E7B8
:102160009DF91030DA170493059232E7CB1E042B49
:1021700004D8DFE803F00B1F35414100039B1A1D13
:1021800003921B680493002305931EE09DF81B3007
:10219000632B07D0039B1A1D03921B680493002333
:1021A000059312E0039B1A1D03921B6804930023FE
:1021B00005930AE0039B073323F0070303F10802AA
:1021C0000392D3E90023CDE9042301291CD002297D
:1021D0007FF4FFAEBDF81030049300230593F8E6BA
:1021E000039B073323F0070303F108020392D3E9AB
:1021F0000023CDE90423E8E7039B1A1D03921B6823
:10220000049300230593E0E79DF810300493002326
:102210000593DEE608290BD0039B073323F0070361
:1022200003F108020392D3E90023CDE90423D0E6A9
:10223000039B073323F0070303F108020392D3E95A
:102240000023CDE90423C4E6039B1A1D03921B68F7
:102250000493BEE6029F3B464A46294630460CF0B0
:1022600087FD0028C0F241810444B94662E6294650
:102270002520B0470028C0F238810134D8460DF13E
:102280003E0A4FF000099BE0DDF81090BAF1000F14
:1022900007DB514648460CF0A9FF09EB000AD84677
:1022A0008EE048460CF099FFF7E7049B8DF8283044
:1022B000D8460DF1290A0DF1280981E018F0080F20
:1022C00005D118F0100804D04FF0200801E04FF0BD
:1022D0002B08049A059B002B02DB0492059308E06F
:1022E000524263EB4303049205934FF02D0800E044
:1022F000D8460DF13E0300930AAB06AADDE90401BE
:102300000CF0CCFC8146BAF1000FC0F288800DF1D0
:102310003E03A3EB09039DF818206FF386128DF896
:1023200018209A457ED9AAEB030307930DF13E0AC4
:1023300046E0049828B9D846DFF8B4A1AAF1050907
:102340003EE00DF13E0300930AAB06AA00210CF01B
:10235000A5FC81469DF81A3043F010038DF81A3021
:1023600078238DF81B30D846CDE7049A9DF81930B4
:10237000C3F3C303072B06D8DFE803F0040B0D0FEC
:102380001115191B1460D8460DF13E0A4FF00009D3
:1023900016E01470F7E71480F5E71460F3E7E3172D
:1023A00014605360EFE7E31714605360EBE71460C9
:1023B000E9E71460E7E7D8460DF13E0A4FF000095F
:1023C000B9F1000F00F08D80AAEB0903B8F1000FFE
:1023D00000D001339DF81A2012F0100F25D00233DF
:1023E00007990B4412F0400F01D0089A1344002FB4
:1023F00031DDFF1A9DF8183013F0040F2BD113F0C4
:10240000400F17D0B8F1000F17D029464046B0470B
:1024100000286ADB0134D8464FF0300B0FE00DF195
:102420003E0ACDE70DF13E0ACAE712F0080FD7D0F9
:102430000133D5E74FF0200B01E04FF0300B3B4666
:102440005F1E002B07DD29465846B04700284CDBAD
:1024500001343B46F4E7B8F1000F05D02946404669
:10246000B047002841DB01349DF81A30C3F3001255
:10247000C3F3C003134305D029463020B0470028DA
:1024800033DB01349DF81A3013F0100F06D02946C3
:102490009DF81B00B047002827DB0134079B03F1A0
:1024A000FF38002B07DD29463020B04700281CDB11
:1024B00001344346F3E753464A46294630460CF07A
:1024C00057FC002811DB0444002F07DD294620209B
:1024D000B047002809DB0134013FF5E7DDF808903B
:1024E00028E5DDF8089025E5204611B0BDE8F08F1D
:1024F0007D06010038B504460D46202200210CF06F
:10250000AEFEEB68E361AB68A3612B6823626B6886
:1025100063620022A2622A69226123B1591E0B4222
:102520000ED0002300E0002313B142F0010222612B
:1025300004F12C00012200210DF016FC10B938BD69
:102540000123F1E7054C2E232246054905480CF0EE
:1025500030FC2E2120460CF025FCF0E7800601001F
:10256000A8060100500401002DE9F04F87B0029247
:102570000393436A013B8B42C0F0EE8004468A46D7
:102580004FF0000BCDF804B03AE0764D8E232A468A
:10259000754976480CF00DFC394675480CF009FC7D
:1025A0008E2128460CF0FEFB39E05D1B013D002624
:1025B00042E0636A5D1B013D00263DE0626A013A2C
:1025C000134023600026384608F0BCFE002800F0C7
:1025D000B08088F31188BFF36F8F76B1BBF1000F25
:1025E0000BD09DF8173043B1A369002B00F0B180E8
:1025F0005946204698474FF0000B002E00F0AE8061
:1026000004F114074FF02003EFF3118983F31288CC
:10261000BFF36F8F384608F085FE0028B5D03846E6
:1026200008F0A0FEC846E3682568AB42BDD8002B81
:10263000BFD0636A5D1B0126AA451AD8236A2268A7
:1026400003EB8201019113F822106FF3000103F8EC
:102650002210C9B26FF3410103F8221023685344DA
:10266000226912F0010FA9D1626A9342A9D39B1A81
:10267000A7E7AEB9039B029A134303D00DF03AFBD0
:10268000064690B122690DF11703C2F340022946B4
:1026900020460CF0C5FB8346061E18BF012692E7B4
:1026A000294620460CF093FB8DE7384608F04AFE99
:1026B000F0B189F31188BFF36F8F04F12C00029AF7
:1026C000039B09F073FA05464FF02003EFF31188DE
:1026D00083F31288BFF36F8F384608F023FEB8B13A
:1026E000384608F03FFE002D7FF46DAF01266AE703
:1026F0001C4DB9232A461F491C480CF05AFB394689
:102700001D480CF056FBB92128460CF04BFBD0E7D6
:10271000DFF850908E234A46134914480CF049FBC9
:10272000394613480CF045FB8E2148460CF03AFB25
:10273000D6E70C4DB9232A460E490C480CF039FB5C
:1027400039460D480CF035FBB92128460CF02AFB20
:102750003FE74FF0000B50E700230193019807B0CB
:10276000BDE8F08FE80501004806010050040100B3
:102770006006010018060100300601002DE9F8434B
:1027800004460D46C36908469847804604F114067E
:102790004FF02003EFF3118783F31288BFF36F8F9D
:1027A000304608F0BFFD90B1304608F0DBFD2B78D5
:1027B00043F001032B70636803EB0800236913F0F7
:1027C000010F15D1636A984215D3C01A13E0DFF8E0
:1027D000D4908E234A46344934480CF0EAFA314604
:1027E00033480CF0E6FA8E2148460CF0DBFADBE7C2
:1027F000636A013B18406060236913F0040F0AD13B
:10280000304608F09FFD00283CD087F31188BFF3C5
:102810006F8FBDE8F883A16AE368206883420FD810
:1028200093B1636A1B1A012212B1E2681344013B9F
:10283000626AD31A013B99420BD9A36AA362DFE70C
:102840001B1A013B0022EFE7626A131A013B0022C8
:10285000EAE7E268206882420BD872B1636A1A1A0A
:10286000012313B1E36813445A1E636A9B1A013BA8
:10287000E4E7121A013A0023F3E7616A0A1A013AFF
:102880000023EEE7074CB92322460A4907480CF01B
:1028900090FA314608480CF08CFAB92120460CF029
:1028A00081FAB2E7E8050100480601005004010082
:1028B0006006010018060100300601002DE9F8430A
:1028C000044654E0524F8E233A46524952480CF087
:1028D00070FA294651480CF06CFA8E2138460CF0FB
:1028E00061FA53E09B1A5AE051F82200800868D13F
:1028F00062E0616A01390B40A360E368184422B9C1
:10290000636A984204D3C01A02E0636A013B18402C
:10291000E0604FF001081EE011F8223043F002039E
:1029200001F82230D4F80880E369384698474044DB
:10293000236913F0010F04D1636A984204D3C01ACB
:1029400002E0636A013B1840A0604FF0000802E01B
:102950004FF000084746284608F0F4FC002843D012
:1029600086F31188BFF36F8FB8F1000F4DD004F1DB
:1029700014054FF02003EFF3118683F31288BFF3A1
:102980006F8F284608F0CEFC00289BD0284608F020
:10299000E9FCA26863689A42A4D9636A9B1A216A17
:1029A00001EB8207002BD3D011F8223013F0030380
:1029B00016D0022B98D0002011F8223013F0010F0E
:1029C000AAD110B9E36938469847A368034422693D
:1029D00012F001028DD1616A8B428DD35B1A8BE7B5
:1029E0004FF000084746B6E7DFF82490B9234A467F
:1029F0000B4909480CF0DDF929460A480CF0D9F9D1
:102A0000B92148460CF0CEF9AAE73846BDE8F8836C
:102A1000E8050100480601005004010060060100BD
:102A200018060100300601002DE9F84304460D4662
:102A3000C36908469847074604F114064FF020037F
:102A4000EFF3118883F31288BFF36F8F304608F0DD
:102A500069FCA8B1304608F085FC2B786FF30003C1
:102A60002B70236913F0020F1BD0236AE26803EB7B
:102A70008203AB4215D02B6867F39F032B6023E0E2
:102A8000DFF880908E234A461F4920480CF091F9C8
:102A900031461F480CF08DF98E2148460CF082F922
:102AA000D8E72B786FF341032B70E0680744236964
:102AB00013F0010F04D1636A9F4204D3FF1A02E0AE
:102AC000636A013B1F40E760304608F03BFC48B1B9
:102AD00088F31188BFF36F8F04F12C0009F022F8FE
:102AE000BDE8F883074DB9232A460A4907480CF088
:102AF00060F9314608480CF05CF9B92128460CF021
:102B000051F9E5E7E805010048060100500401001D
:102B100060060100180601003006010008B54FF0FC
:102B20002002EFF3118382F31288BFF36F8F02F05C
:102B30008BFE03480BF0DEFF01F050FAFCE700BF0C
:102B4000B406010005F088BD2DE9F04707460E46A2
:102B500000240FE0DFF84CA040F25913524612490E
:102B600012480CF026F940F2591150460CF01AF9AF
:102B70000CE001340E4B0F4D5B1BB4EB231F0FDA3F
:102B80004FEA04180B4D15EB0419E3D058F8053043
:102B90009B69002BEDD03246394648469847E8E716
:102BA000BDE8F087E00601001807010050040100AD
:102BB000A40101009401010008B5064B186018B18A
:102BC000054B1B68092B00DC08BD044808F0AAFF70
:102BD000FAE700BFD009002088090020F801002092
:102BE00008B5024808F09EFF08BD00BFF8010020AC
:102BF00030B589B000220F490F480DF015F90F4D7F
:102C000000220023CDE90623002404940E2303931D
:102C10000294019400940A4B4FF40062094928463B
:102C200008F0C8FC0849284608F05CFB204609B0BB
:102C300030BD00BFE12B0000080600204006002048
:102C4000B532000000130020300701002DE9F84FD5
:102C5000814604460EE0DFF874B09D235A461C49B5
:102C60001C480CF0A6F89D2158460CF09BF816E085
:102C70000020E0B13CB394FAA4F5B5FA85F54FEA2B
:102C80000518154F07EB05160123AB406FEA030A41
:102C900024EA0304337B002BECD0002EDBD058F861
:102CA00007301B69002BE3D030469847E1E709EA7B
:102CB0000A09094B03EB05156B68042219683046B5
:102CC00000F05EFBD6E74846BDE8F88FE00601005D
:102CD0001807010050040100940101002DE9F04F94
:102CE00083B001908B46414B414A9B1A4FEA23190E
:102CF000902B0FD83F4BBFF35B8F53E8005F6A1CEC
:102D000043E800210029F8D1BFF35B8F002D67D184
:102D100000242DE0384C4FF484732246374938485C
:102D20000CF047F84FF4847120460CF03BF8E1E7D3
:102D3000DFF8D0A08A235246334931480CF039F8E5
:102D40008A2150460CF02EF81FE0DFF8B8A09D2332
:102D500052462D492A480CF02CF89D2150460CF083
:102D600021F81AE0002000B30123A3401D430134E1
:102D70004C4525DA00944FEA04181D4F07EB041662
:102D8000337B002BF3D0002ED2D058F80730DB680D
:102D90000BB130469847002ED7D058F807301B6942
:102DA000002BDFD030469847DDE7114B009A03EB4C
:102DB00002135B6804221968304600F0E1FAD6E796
:102DC000019B73B15C4665B12846FFF73FFF05469E
:102DD000002CF8D04FF4A47000210AF069FDF2E74E
:102DE0000025284603B0BDE8F08F00BFA401010014
:102DF00094010100900900203807010068070100D4
:102E000050040100E0060100180701002DE9F84315
:102E10000746002422E0DFF898904FF495734A4665
:102E2000244925480BF0C5FF4FF4957148460BF037
:102E3000B9FF1FE0DFF87890B1234A461D491E48CC
:102E40000BF0B7FFB12148460BF0ACFF1EE058F87D
:102E500005301B683946304698470134174B184AED
:102E60009B1AB4EB231F20DA4FEA0418144D15EB1C
:102E70000416D0D073685B79002BEED0394630460B
:102E80000CF077F80028E8D0002ED3D0002FDED148
:102E9000DFF81C90B2234A460A4907480BF089FF25
:102EA000B22148460BF07EFFD1E7BDE8F88300BFB2
:102EB000E00601001807010050040100A401010010
:102EC000940101008C070100014B53F8200070476A
:102ED000C007010038B108B5044A1060084600F088
:102EE0002BFD002008BD6FF0150070473C0000204E
:102EF00008B5054B1B781BB1034B01221A7008BDA6
:102F0000024808F00FFEF7E7CA120020F80100207F
:102F10000D4BBFF35B8F53E8002F013243E80021D4
:102F20000029F8D1BFF35B8F00B97047074BBFF39F
:102F30005B8F53E8002F013A43E800210029F8D1C4
:102F4000BFF35B8FF1E700BF8C09002088090020E8
:102F5000064B00200246BFF35B8F53E8000F43E8A7
:102F600000210029F9D1BFF35B8F70478C09002045
:102F70002DE9F843FFF7ECFF074600241FE0DFF8D8
:102F800074904FF495734A461B491C480BF011FF8F
:102F90004FF4957148460BF005FF1CE0DFF85490A4
:102FA000C1234A46144915480BF003FFC121484686
:102FB0000BF0F8FE15E03946304698470134104BC7
:102FC000104A9B1AB4EB231F11DA4FEA04180D4D77
:102FD00015EB0416D3D073685B79002BEED0002E6E
:102FE000DCD058F805305B68002BE4D1E6E7BDE89B
:102FF000F88300BFE006010018070100500401003B
:10300000A401010094010100034B18680028D4BFFB
:1030100000200120704700BF8C09002008B502493C
:103020000248FFF767FA08BDCC07010094090020A9
:1030300008B50023054A1370054A13604FF4004198
:103040000448FFF747FFFFF7E9FF08BDCB12002058
:103050008C09002077EF000008B50146002200230C
:103060000148FFF781FA08BD9409002008B502481D
:10307000FFF724FC08BD00BF9409002008B50146F5
:103080000148FFF7D1FC08BD9409002008B50248AB
:103090000BF04FFF08BD00BF94090020114B1878BA
:1030A00000B9704710B5FFF7E1FF044688B10E4B39
:1030B000BFF35B8F53E8002F013A43E8002100295A
:1030C000F8D1BFF35B8F2046FFF7A0FE2046FFF745
:1030D000D5FFFFF799FF10B9FFF7D8FF10BDFFF735
:1030E00047FFF9E7CA12002088090020234B1B780C
:1030F00003B170472DE9F04100210120FFF7EEFDFB
:10310000002413E0DFF878804FF4957342461D49A0
:103110001D480BF04EFE4FF4957140460BF042FEF9
:103120000FE07B599B68304698470134174B184A8B
:103130009B1AB4EB231F17DA2701154D15EB041664
:10314000E0D073685B79002BEFD0002EE9D1DFF877
:103150003080CF2342460B490B480BF02AFECF218B
:1031600040460BF01FFEDCE7FFF798FF0028FBD17D
:10317000024B01221A70BDE8F08100BFCB12002083
:10318000E00601001807010050040100A40101003D
:103190009401010030B583B0314BBFF35B8F53E82E
:1031A000002F511C43E800100028F8D1BFF35B8FBB
:1031B0002C4B1B786BB92C4B1B6823B3002A44D0D3
:1031C0000A2A20D129480CF03BFE294808F0AAFC25
:1031D00019E04FF02003EFF3118583F31288BFF35A
:1031E0006F8F244808F09EF878B1224C204608F0F2
:1031F000B9F8FFF753FF204608F0A4F8A8B185F30B
:103200001188BFF36F8F03B030BD1B4C8E23224655
:103210001A491B480BF0CDFD16491A480BF0C9FDA1
:103220008E2120460BF0BEFDDFE7134CB92322466A
:10323000154913480BF0BDFD0E4914480BF0B9FDBC
:10324000B92120460BF0AEFDD9E700220023CDE9DD
:1032500000234FF40042002304480BF043F9D2E767
:1032600088090020CB120020D00900200806002089
:10327000F8010020D4090020E805010048060100FB
:10328000500401006006010018060100300601002C
:1032900010B50446054B1B689847A06021460448BA
:1032A000FFF76CFAFFF776FF10BD00BF3C0000206F
:1032B000940900202DE9F041234B244A9B1A002B4E
:1032C0000EDD00210846FFF709FD8046B0B140F24F
:1032D000676600270AF038FBFFF76EFC002523E045
:1032E0001B4C40F28A2322461A491B480BF061FD11
:1032F00040F28A2120460BF055FDE2E74FF0FF3601
:103300004FF0FF37E6E74046FFF7A0FC804670B974
:103310004FF0FF364FF0FF3709E02C4632463B4670
:103320000E4808F043FC2546B8F1000FEBD1FFF73B
:10333000B5FE04460028F6D1002DEED00021084647
:10334000FFF702FCEAE700BFA401010094010100BD
:1033500038070100A007010050040100F801002017
:10336000054B064A9B1AB1EBD30F02D252F831003B
:1033700070470020704700BF940101002401010044
:10338000F8B505460E46154C041B24110134E4B271
:1033900050B16B681C719DB16B681E606B68012237
:1033A0005A71FFF7A5FDF8BD0D4FDE233A460D49D2
:1033B0000D480BF0FEFCDE2138460BF0F3FCE8E78D
:1033C000074C40F20F132246064907480BF0F1FC68
:1033D00040F20F1120460BF0E5FCDDE794010100FF
:1033E000E006010018070100500401002DE9F04734
:1033F0008AB005461E460F46C1F34924002C42D030
:10340000904600220792089209920423029305AB8A
:1034100001930223009307AB21464046FDF754FE7B
:10342000C0F3090969F35227C7F3CB40484417306A
:1034300020F007008008FFF70FFE824668B300F116
:1034400010030793CDF8209000220992CBB1174AC0
:103450000423029305AB01930223009307AB21469B
:103460004046FDF731FE002817DA114C482322466A
:10347000104911480BF09DFC482120460BF092FCAE
:103480000BE00022E4E7C1F3CB410C44173424F0F5
:103490000704A008FFF7E0FD824633463A46294676
:1034A00050460BF089FD0AB0BDE8F0878DEF0000B3
:1034B0003C08010068080100500401000EB400B58A
:1034C00084B0014605AB53F8042B03930020009011
:1034D0000348FEF727FD04B05DF804EB03B0704726
:1034E0006937000030B585B011F0440F05D01A4B94
:1034F0001C6834B9002005B030BD1849FFF7DEFF65
:10350000F9E7174B1968B2FBF1F1B1FBF4FC154A6E
:10351000A2FB0C32D20A4FF4616E0EFB12CE124B9C
:10352000A3FB0E535B0904FB1C114FF47A7C0CFBCC
:1035300001F1B1FBF4F505FB14110CFB01F1B1FB3A
:10354000F4F102910195C3EB0311AEEB81010091FF
:103550000649FFF7B3FFCEE7D80900207408010041
:10356000DC090020C5B3A291898888888008010001
:1035700061B108B52AB1064A52F8232012B9054AAA
:1035800000E0044A0449FFF799FF08BD704700BFF7
:10359000640901009C080100A40801002DE9F04124
:1035A000054617461E46DDF8188099B900242EB14D
:1035B000324612492846FFF781FF0444B8F1000F54
:1035C00017D087B10123079A934013F0100F13D13E
:1035D0000B4909E00B4B079A53F822200A49FFF7E1
:1035E0006DFF0446E3E7064942462846FFF766FFBB
:1035F00004442046BDE8F0810449F5E7BC08010019
:10360000A8080100A0090100B4080100B0080100E9
:103610002DE9F04F85B005460C46164603939DF8FC
:10362000408001F0020B01F0010AC1F3C0090BF068
:10363000ABFCD8B1024612492846FFF73FFF0746C8
:10364000BBF1000F14D14246514628460BF0E2FC74
:10365000CDF804800F9B00930E9B324649462846C6
:10366000FFF79CFF384405B0BDE8F08F0027E7E77F
:10367000039A21462846FFF735FF0744E3E700BFDA
:10368000C008010011F0100F0BD108B511F0200F88
:1036900003D00449FFF712FF08BD0349FFF70EFFEF
:1036A000FAE77047CC100100C82A01002DE9F0416B
:1036B00005460F46164698460699FFF7E3FF002495
:1036C000444505DA23492846FFF7F8FE0134F7E7B9
:1036D000002409E01F492846FFF7F0FE0BE01E49D1
:1036E0002846FFF7EBFE01340F2C0CDC002C02DD2A
:1036F00014F0070FEED0B442F1D23A5D17492846D4
:10370000FFF7DCFEEFE716492846FFF7D7FE002457
:1037100009E010492846FFF7D1FE0BE01149284681
:10372000FFF7CCFE01340F2C12DC002C02DD14F06C
:10373000070FEED0B44206D23A5DA2F120035E2B11
:10374000ECD92E22EAE703492846FFF7B7FEE9E75E
:10375000BDE8F081B8080100CC080100C4080100F0
:10376000D0080100D408010038B505460C464B6866
:103770001A68CB689A4214D06368BFF35B8F53E832
:10378000002F511C43E800100028F8D1BFF35B8FD5
:10379000A3689D5463681A68E3689A4205D80020BC
:1037A00038BD08460BF069FCE6E7064C7923224653
:1037B000054906480BF0FDFA792120460BF0F2FA94
:1037C000EDE700BFD808010008090100500401001E
:1037D0002DE9F04184B004469DF828500B9F0D9EC2
:1037E0009DB94FF0000847B1CDB91C483B46224671
:1037F0001B490BF01FF9002813DB06BB45BB204615
:103800000BF03BFC04B0BDE8F081029501930092FF
:103810000B4600220E99FFF7FBFE8046E3E71148B6
:10382000E4E7114F4FF4FD733A46104910480BF08E
:10383000C0FA4FF4FD7138460BF0B4FADDE70E9B89
:103840000093434632460C9920460BF0FBFBD5E72C
:103850002A460E9920460BF0E9FBD0E795F00000D0
:1038600005F0000069370000D808010038090100A0
:10387000500401002DE9F04387B006460C469046FF
:10388000D1F808900F88C7F382174B680878C0F307
:10389000C20033B11149591A41F3CF01002919DA95
:1038A0000023214651F8105BC5F349256288C2F315
:1038B000CB02481905B90021CDF81080039202907F
:1038C00001910097002249463046FFF781FF07B07B
:1038D000BDE8F083FFF744FD0346E2E72401010061
:1038E00070B582B00446056842F20F738B4228BF60
:1038F0000B460E4A052168460BF00AF90646636836
:103900005B680B220A4928460BF06FFB63685B6813
:103910003246694628460BF068FB63685B681B22E9
:10392000044928460BF061FB02B070BDE0030100C2
:103930009409010078090100074B01221A6004E094
:103940004008054A13685B001360044B9842F7D89F
:10395000034B1860704700BFDC09002040420F0095
:10396000D809002070B506460D46002406E0054B38
:103970001868315D83685B6898470134AC42F6D3C0
:10398000284670BDF8090020014B196000207047DF
:10399000E809002010B50948094B18600CF05DF9E2
:1039A00000B110BD074C6F232246074907480BF0B2
:1039B00000FA6F2120460BF0F5F9F2E750FF000006
:1039C000F8090020B4090100EC09010050040100CD
:1039D00008B5034B01221A7002480BF04EFB08BDDC
:1039E000CC120020440A010008B50248FFF778FF16
:1039F00008BD00BF440A010010B50C46044B18680E
:103A0000FFF762FA03460F2221460248984710BD8D
:103A1000E8090020440A010070B5404B1D7D05F007
:103A20001F0301229A4069093D4B03EB8103D043F8
:103A3000BFF35B8F53E8001F01EA000443E8004630
:103A4000002EF7D1BFF35B8F0A4200D170BD354A1B
:103A500005EB4503980002EB83033349A9B159787C
:103A6000105C0BF039FC4FF02003EFF3118683F369
:103A70001288BFF36F8F2D4807F054FC58B12B48C4
:103A800007F070FC2A4B1C6820E0002383F31188A8
:103A9000BFF36F8FE7E7274C8E232246264927483E
:103AA0000BF087F9214926480BF083F98E21204637
:103AB0000BF078F9E3E7194B1B7D03EB430319493E
:103AC00011F8230090470CB1246824B11CB1A268FE
:103AD000002AF0D1F7E7154807F034FC70B186F3FF
:103AE0001188BFF36F8F0F4A05EB4505A90002EB64
:103AF0008505002353506B60AB60A7E70D4CB923DD
:103B0000224610490D480BF054F908490E480BF0B5
:103B100050F9B92120460BF045F9E0E7901000205C
:103B2000280A00201C0A0020D9F20000040A002004
:103B3000080A0020E80501004806010050040100C1
:103B4000600601001806010030060100F8B50446C1
:103B50007C4B1D7D4FF02003EFF3118683F3128819
:103B6000BFF36F8F784807F0DDFB002845D076481B
:103B700007F0F8FB05EB4503744A12F82330002BDD
:103B80004BD005EB450C724B03EB8C0C174605EB49
:103B900045034FEA830E02EB830393E807008CE8AA
:103BA0000700002307F80E30674807F0CBFB00281A
:103BB00042D086F31188BFF36F8F05EB4503644A4B
:103BC00012F82330002B00F0BB80B4F1FF3F43D14B
:103BD00008F0C4FD4FF02003EFF3118683F3128841
:103BE000BFF36F8F5B4807F09DFB002849D0594811
:103BF00007F0B8FB584B1C685EE0584F8E233A46DE
:103C0000574958480BF0D5F84F4957480BF0D1F8B1
:103C10008E2138460BF0C6F8A9E72146284600F069
:103C2000B1F80028C0D005EB4503494A02EB8303F5
:103C300007C883E80700B7E7484FB9233A464B491E
:103C400048480BF0B6F8404949480BF0B2F8B921A2
:103C500038460BF0A7F8ACE705EB450302EB83030E
:103C60009868410CC003434BC018434A4FF000030F
:103C700041F10001FCF744FA0121201A0AF0BCF9D5
:103C8000A6E7364C8E232246354936480BF091F88C
:103C9000304935480BF08DF88E2120460BF082F824
:103CA000A5E7284B1B7D03EB4303294911F82300AB
:103CB00090470CB1246824B11CB16268002AF0D18D
:103CC000F7E7244807F03EFB50B386F31188BFF3B3
:103CD0006F8F05F01F03012199406B09274A02EB02
:103CE0008303BFF35B8F53E8002F0A4343E80020B0
:103CF0000028F8D1BFF35B8F214B5BB1144A05EB71
:103D0000450302EB830305EB4505597812F82500BE
:103D10000BF0D6FAFFF780FE09F0ACFA0120F8BDEF
:103D20000E4CB923224611490E480BF042F80949BE
:103D30000F480BF03EF8B92120460BF033F8C4E7EA
:103D40000020ECE790100020000A0020100A00205C
:103D50001C0A0020040A0020080A0020E8050100CF
:103D60004806010050040100600601001806010029
:103D7000300601003F420F0040420F00280A002099
:103D8000C1F200002DE9F04182B00E4601A900F019
:103D900045F8441E24B207E0B6F1FF3F33D040445B
:103DA000B04230D9013C24B2002C2BDB019B04EB48
:103DB000440203EB8205697813F822000BF078F9CE
:103DC0000028EFD16868410CC003114FC019114A97
:103DD0004FF0000341F10001FCF792F98046AB6817
:103DE000590CDB03D8190B4A4FF0000341F10001D5
:103DF000FCF786F9084B1B68B3F1FF3FCCD0834238
:103E0000CAD8CFE70025284602B0BDE8F08100BF40
:103E10003F420F0040420F004000002008B9024B13
:103E20000B600020704700BF580A010008B5024827
:103E30000AF01EFC08BD00BF580A0100D0B108B549
:103E40004268042A05D0D2B1006807F0CBFD0020FB
:103E500008BD03680022BFF35B8F53E8001F0129F0
:103E600003D143E800200028F7D1BFF35B8F04D1D2
:103E70001046EDE76FF4E04070470248E8E702487B
:103E8000E6E700BFE98FFFFFEA8FFFFF20B308B529
:103E90004268042A02D092B911480FE00368012257
:103EA000BFF35B8F53E8001F002903D143E80020D4
:103EB0000028F7D1BFF35B8F0CD1002008BD00684C
:103EC0004FF0FF324FF0FF3307F06CFC0028F5D0C5
:103ED0000448F3E70348F1E76FF4E040704700BFA0
:103EE000EA8FFFFFE98FFFFF10B5044688B16368D2
:103EF000042B0DD0082B0BD053B113F0020F0DD0B3
:103F00002146094807F086F90023236000236360F7
:103F100010BD064B5B6806489847E8E7142200216D
:103F200020680BF09CF9F1E72C0A00202C010020FE
:103F3000600A010010B5044678B16368042B0BD009
:103F4000082B09D00BB9236863B120680BF005FF7B
:103F5000636843F00103636010BD0F4B5B680F485B
:103F60009847EAE74FF0FF324FF0FF3321460C4805
:103F700007F0DAF808B923681BB9074B5B680948F2
:103F800098471422002120680BF069F9636843F018
:103F900002036360D9E700BF2C010020600A010022
:103FA0002C0A0020880A010008B540231422044985
:103FB00004480BF07EFE044904480AF0B9FB08BD32
:103FC0004C0A00202C0A0020C80A0100B80A01008F
:103FD000014910220A60704710ED00E072B64040BF
:103FE00080F31188BFF36F8FBFF34F8F30BF62B67E
:103FF000BFF36F8F704700BF72B6494081F31188DD
:1040000020BF80F3118862B6704700BFF0B583B05F
:1040100000AF0446D0F800C0456880686E468AB09C
:104020006B4613F1100200F0F08014212AB104292C
:1040300003DDDFF808E2C3F814E01AB1082901DD56
:10404000C3F818C012B10C2900DDDD6112B11029CE
:1040500000DD1862132940F3DB8014253AB10521F5
:10406000397100217971B971F9717868186100218D
:104070006FF300016FF341016FF382016FF3C5012C
:10408000012363F3881105F47D7565F352216FF305
:10409000DE416FF3DF7100236948FFF7A7F9B546EA
:1040A000D4F80CC0266960696D468AB06B4613F17E
:1040B000100200F0B08014212AB1042903DDDFF8DA
:1040C00084E1C3F814E01AB1082901DDC3F818C06F
:1040D00012B10C2900DDDE6112B1102900DD186279
:1040E000132940F39B804FF0140C3AB1052139712C
:1040F00000217971B971F9717868186100216FF345
:1041000000016FF341016FF382016FF3C5010123D9
:1041100063F388110CF47D7C6CF352216FF3DE4164
:104120006FF3DF7100234648FFF760F9AD46E069A1
:104130006D4688B06B4613F1100272D00C211AB193
:10414000042901DD404E5E6112B1082900DD98614D
:104150000B2969DD4FF00C0C3AB1032139710021B4
:104160007971B971F9717868186100216FF30001F4
:104170006FF341016FF382016FF3C501012363F314
:1041800088110CF47B7C6CF352216FF3DE416FF3EA
:10419000DF7100232A48FFF729F9AD46A06988B0EE
:1041A0006B4613F1100242D00C211AB1042901DD33
:1041B000264C5C6112B1082900DD98610B2939DDBC
:1041C0000C243AB10321397100217971B971F97167
:1041D0007868186100216FF300016FF341016FF3FC
:1041E00082016FF3C501012363F3881104F47B742A
:1041F00064F352216FF3DE416FF3DF710023104847
:10420000FFF7F4F80C37BD46F0BD6FF000410DE745
:104210006FF01B0522E76FF000414DE76FF01B0CBC
:1042200063E76FF000418AE76FF01B0C94E76FF0D3
:104230000041BAE76FF01B04C3E700BFDC0A0100CE
:104240006C0101000C0B01003C0B01004C0B010048
:1042500040B2002807DB00F01F0240090123934011
:10426000014A42F82030704700E100E04209054B66
:1042700053F8222000F01F00012303FA00F0104041
:10428000704700BF00E100E0F8B504464D1C072D63
:104290000BD860B200281BDB6D01EDB200F160406D
:1042A00000F5614080F80053F8BD0E460C4F5B23CB
:1042B0003A460C490C480AF07CFD07232246314659
:1042C0000A480AF076FD5B2138460AF06BFDE0E70C
:1042D00000F00F006D01EDB2054B1D54E4E700BF87
:1042E0007C0B0100B40B010050040100D00B010055
:1042F00014ED00E030BFFFF7FDBF00BF08B50B4B6A
:104300000B4A22F07F029A60BFF34F8FBFF36F8F8B
:10431000D3F8882022F47002C3F8882006F032FE19
:1043200009F078FC00F0FAFF06F08AFE00ED00E0EC
:10433000000000000A4A9368C3F8A8000949096808
:10434000C3F8AC1008494B6843F080534B6000231E
:1043500083F31188BFF36F8F9368D3F8AC00704775
:10436000901000202423010000ED00E013498A682A
:104370004FF030001044EFF3098C80E8F01F20204C
:1043800080F31288BFF36F8F0D4F4FF00066CA693C
:104390008A603E60D2F8A8000023C2F8A83080F3FB
:1043A000118804B5104601F069F8BDE8044002F137
:1043B000300090E8F01F8CF30988704790100020BF
:1043C00004ED00E01EF0040F0CBFEFF30880EFF3E4
:1043D0000980816911F8021C0229FFD001B50AF099
:1043E00079FE01BD10B4A2F120040E4942F8081C68
:1043F00021F0010142F8081C42F8203C019B42F8E0
:104400001C3C029B42F8183C039B42F8143C4FF0C2
:10441000807342F8043C04650023C0F8A83010BC47
:10442000704700BF65EC0000124B9A6802B310F1B0
:10443000160F11D0D2F89830A3F1400C844505D85E
:10444000834205D98B4205D800210BE0002109E009
:10445000002107E0012105E0D2F898308B4294BF9B
:104460000021012109B900207047D2F89800704757
:10447000002070479010002008B50D461446084BE8
:10448000986000F0FBFF204685F30988002163B6A1
:1044900081F31188BFF36F8F002200230AF0E2FB43
:1044A0009010002001B572B60B4A906900281EBF1B
:1044B000002191610BF035FC62B6EFF30580A0F1AD
:1044C00010004FEAC0000549014409C99847BDE8FA
:1044D00001400349084700009010002080FF0000C1
:1044E000E5440000044B9968D869884203D0034929
:1044F0004FF080520A6070479010002004ED00E0F9
:104500002DE9F041ACB000AF05460E461446BA4B5B
:10451000FB6102233B7100237B71BB71FB717A68E5
:10452000BA61194663F3000163F3410163F3820149
:1045300063F3C501012262F38811082262F352215C
:1045400063F3DE4163F3DF7107F11802AB48FEF756
:104550004DFFAB4B9B6A13F4805F2AD1A84B9B6A3B
:1045600013F4006F48D1A64B9B6A13F4007F66D109
:10457000A34B9B6A13F4806F40F0D180A04B9B6AE1
:1045800013F4807F40F0EE809D4B9B6A13F4005F34
:1045900040F00D819A4A936A43F47F43936201216C
:1045A00028460AF0A9FD20700020B037BD46BDE8BE
:1045B000F081944B7B6302233B7100237B71BB71C1
:1045C000FB717A683A63194663F3000163F34101B2
:1045D00063F3820163F3C501012262F388110822AB
:1045E00062F3522163F3DE4163F3DF7107F13002BE
:1045F0008248FEF7FBFEB1E7834BFB6402233B716D
:1046000000237B71BB71FB717A68BA64194663F34E
:10461000000163F3410163F3820163F3C5010122E9
:1046200062F38811082262F3522163F3DE4163F3DF
:10463000DF7107F148027148FEF7D8FE93E7734B2C
:104640007B6602233B7100237B71BB71FB717A682F
:104650003A66194663F3000163F3410163F3820193
:1046600063F3C501012262F38811082262F352212B
:1046700063F3DE4163F3DF7107F160025F48FEF729
:10468000B5FE5F4B986B9B6A13F4004F3FF470AF1D
:10469000E84688B06B4613F110023AD00C212AB1DB
:1046A000042903DDDFF868C1C3F814C012B108297A
:1046B00000DD98610B292FDD4FF00C0C3AB103217E
:1046C000397100217971B971F97178681861002127
:1046D0006FF300016FF341016FF382016FF3C501C6
:1046E000012363F388110CF47B7363F352216FF39E
:1046F000DE416FF3DF7100234048FEF777FEC546C9
:10470000002E3FF435AF3E4A936A23F40043936290
:104710002EE76FF00041C2E76FF01B0CCEE73D4B78
:10472000FB6702233B7100237B71BB71FB717A68CD
:10473000BA67194663F3000163F3410163F3820131
:1047400063F3C501012262F38811082262F352214A
:1047500063F3DE4163F3DF7107F178022748FEF768
:1047600045FE0BE72C4BC7F8AC3002233B7100230E
:104770007B71BB71FB717A68C7F8A820194663F397
:10478000000163F3410163F3820163F3C501012278
:1047900062F38811082262F3522163F3DE4163F36E
:1047A000DF7107F1A8021548FEF720FEF2E61B4B69
:1047B000C7F8943002233B7100237B71BB71FB71FE
:1047C0007A68C7F89020194663F3000163F341014A
:1047D00063F3820163F3C501012262F388110822A9
:1047E00062F3522163F3DE4163F3DF7107F190025C
:1047F0000248FEF7FBFDCDE6100C01006C01010044
:1048000000ED00E0280C01003C0C0100500C010000
:104810006C0C0100840C0100A00C0100B80C01001C
:1048200000B5ADB09A4B079302238DF804300023F6
:104830008DF805308DF806308DF80730019A069214
:10484000194663F3000163F3410163F3820163F3EB
:10485000C501012262F38811082262F3522163F339
:10486000DE4163F3DF7106AA8A48FEF7BFFD8A4B7B
:104870009B6A13F0007F26D1874B9B6A13F0807FE1
:1048800047D1854B9B6A13F4002F68D1824B9B6AFA
:1048900013F4802F40F089807F4B9B6A13F4003F14
:1048A00040F0A9807C4B9B6A13F4803F40F0C980A4
:1048B000794A936A6FEA03436FEA134393620020D5
:1048C0002DB05DF804FB754B0D9302238DF8043079
:1048D00000238DF805308DF806308DF80730019AE9
:1048E0000C92194663F3000163F3410163F3820103
:1048F00063F3C501012262F38811082262F3522199
:1049000063F3DE4163F3DF710CAA6248FEF76EFDCC
:10491000B2E7634B139302238DF8043000238DF824
:1049200005308DF806308DF80730019A129219463D
:1049300063F3000163F3410163F3820163F3C50193
:10494000012262F38811082262F3522163F3DE41EF
:1049500063F3DF7112AA4F48FEF748FD91E7514B10
:10496000199302238DF8043000238DF805308DF85B
:1049700006308DF80730019A1892194663F300014A
:1049800063F3410163F3820163F3C501012262F322
:104990008811082262F3522163F3DE4163F3DF7171
:1049A00018AA3C48FEF722FD70E73F4B1F930223F5
:1049B0008DF8043000238DF805308DF806308DF821
:1049C0000730019A1E92194663F3000163F3410117
:1049D00063F3820163F3C501012262F388110822A7
:1049E00062F3522163F3DE4163F3DF711EAA2948AB
:1049F000FEF7FCFC50E72D4B259302238DF8043085
:104A000000238DF805308DF806308DF80730019AB7
:104A10002492194663F3000163F3410163F38201B9
:104A200063F3C501012262F38811082262F3522167
:104A300063F3DE4163F3DF7124AA1648FEF7D6FC68
:104A400030E71B4B2B9302238DF8043000238DF8A5
:104A500005308DF806308DF80730019A2A921946F4
:104A600063F3000163F3410163F3820163F3C50162
:104A7000012262F38811082262F3522163F3DE41BE
:104A800063F3DF712AAA0348FEF7B0FC10E700BF0A
:104A9000E80C01006C01010000ED00E0000D0100D8
:104AA000140D0100300D0100500D0100780D0100C2
:104AB000940D010000B589B000230B70134A0792D2
:104AC00002228DF804208DF805308DF806308DF81F
:104AD0000730019A0692194663F3000163F341011E
:104AE00063F3820163F3C501012262F38811082296
:104AF00062F3522163F3DE4163F3DF7106AA0448D7
:104B0000FEF774FC09B05DF804FB00BFC00D0100A6
:104B10006C01010090B583B000AF0F294BDC2F4C26
:104B2000103902233B718AB06B4613F1100244D056
:104B30004FF0110C22B1BCF1040F01DD284858617F
:104B4000022038701AB1BCF1080F00DD9C611AB167
:104B5000BCF10C0F00DDD9611AB103F12001002076
:104B600070B3BCF1100F35DD4FF0110C42B10421D0
:104B7000397100217971B9710121F9717868186171
:104B800000216FF300016FF341016FF382016FF3B6
:104B9000C501012363F38811CCF3090C6CF3522196
:104BA0006FF3DE416FF3DF7100230E48FEF71EFC4A
:104BB0000C37BD4690BD0C4CB2E76FF0004CB9E726
:104BC00007F1080404EB000E1EF808EC01F801EBF5
:104BD0000130C5E76FF01B0CC8E700BF000E0100F5
:104BE000180E01006C010100E40D01002DE9F043F5
:104BF000A7B000AF05460C461646C34BFB61022327
:104C00003B7100237B71BB71FB717A68BA611946F5
:104C100063F3000163F3410163F3820163F3C501B0
:104C2000012262F38811082262F3522163F3DE410C
:104C300063F3DF7107F11802B448FEF7D7FBB44BFA
:104C40009B6A13F0100F40D1B14B9B6A13F0080F11
:104C50005ED1AF4B9B6A13F0020F7CD16FF0150849
:104C6000AB4B9B6A13F0010F40F0E780A84B9B6AA7
:104C700013F0200F40F00481A54B9B6A13F0100F36
:104C800004D1A34B9C6A14F0020405D0A04B5C68CD
:104C900014F4006440F019819D4B9B6A13F0200FBF
:104CA00004D09B4A536A23F400535362984A936A90
:104CB00043F0FF039362012128460AF01DFA307089
:104CC00020469C37BD46BDE8F083924B7B630223B0
:104CD0003B7100237B71BB71FB717A683A631946A3
:104CE00063F3000163F3410163F3820163F3C501E0
:104CF000012262F38811082262F3522163F3DE413C
:104D000063F3DF7107F130028048FEF76FFB9BE72A
:104D1000814BFB6402233B7100237B71BB71FB71F0
:104D20007A68BA64194663F3000163F3410163F3DF
:104D3000820163F3C501012262F38811082262F344
:104D4000522163F3DE4163F3DF7107F148026F48DC
:104D5000FEF74CFB7DE7714B7B6602233B71002322
:104D60007B71BB71FB717A683A66194663F3000187
:104D700063F3410163F3820163F3C501012262F32E
:104D80008811082262F3522163F3DE4163F3DF717D
:104D900007F160025D48FEF729FB5D4BD3F83480D4
:104DA0009B6A13F0800F45D0E94688B06B4613F13B
:104DB000100239D00C211AB1042901DD584858617C
:104DC0001AB1082901DDC3F818800B292FDD4FF037
:104DD0000C0C3AB10321397100217971B971F97163
:104DE0007868186100216FF300016FF341016FF3E0
:104DF00082016FF3C501012363F388110CF47B7307
:104E000063F352216FF3DE416FF3DF7100233F48FC
:104E1000FEF7ECFACD46002C3FF422AF3C4A936AF1
:104E200023F0800393621BE76FF00041C3E76FF04C
:104E30001B0CCEE76FF0150812E73A4BFB67022315
:104E40003B7100237B71BB71FB717A68BA671946AD
:104E500063F3000163F3410163F3820163F3C5016E
:104E6000012262F38811082262F3522163F3DE41CA
:104E700063F3DF7107F178022448FEF7B7FAF5E62D
:104E8000294BC7F8943002233B7100237B71BB711F
:104E9000FB717A68C7F89020194663F3000163F349
:104EA000410163F3820163F3C501012262F38811BA
:104EB000082262F3522163F3DE4163F3DF7107F1ED
:104EC00090021248FEF792FAD6E629464046FFF7CE
:104ED000ABFA804690BB0E4B9C6A14F010043FF472
:104EE000DBAE124C40F2531322461149114809F02F
:104EF00060FF114809F05DFF40F25311204609F0B0
:104F000051FF4446C8E600BF2C0E01006C010100B1
:104F100000ED00E0440E01003C0C0100780E0100A1
:104F2000900E0100A80E0100B80C0100C80E01008F
:104F3000040F010050040100500F010080F30988A4
:104F40000224A9E6F0B59BB000AF06460D46964B8D
:104F5000FB6102233B7100247C71BC71FC717B6896
:104F6000BB61214664F3000164F3410164F38201F3
:104F700064F3C501012363F38811082363F352210D
:104F800064F3DE4164F3DF71234607F118028748BA
:104F9000FEF72CFA2C70864BDC6A14F002044AD11E
:104FA000834BDB6A002B6DDB814BDC6A14F08044A1
:104FB00000F0E8807F4B7B6302233B7100237B7111
:104FC000BB71FB717A683A63194663F3000163F3BE
:104FD000410163F3820163F3C501012262F3881189
:104FE000082262F3522163F3DE4163F3DF7107F1BC
:104FF00030026E48FEF7FAF9B36933F8022C4DF629
:1050000002739A4261D06A4B9B6A13F0FF0F40F023
:105010009A80674B9B6A13F47F4F40F09B80644BF0
:105020009C6A240C2404002C00F09B803046FFF77F
:10503000F7FB044622E0604B7B6602233B710024B1
:105040007C71BC71FC717B683B66214664F3000196
:1050500064F3410164F3820164F3C501012363F346
:105060008811082363F3522164F3DE4164F3DF7196
:10507000234607F160024D48FEF7B8F920466C3729
:10508000BD46F0BD4D4BFB6402233B7100237B7199
:10509000BB71FB717A68BA64194663F3000163F36C
:1050A000410163F3820163F3C501012262F38811B8
:1050B000082262F3522163F3DE4163F3DF7107F1EB
:1050C00048023A48FEF792F9D8E730686D4688B052
:1050D0006B4613F1100230D00C211AB1042901DD06
:1050E000374C5C6112B1082900DD98610B2927DD7E
:1050F0000C243AB10321397100217971B971F97128
:105100007868186100216FF300016FF341016FF3BC
:1051100082016FF3C501012363F3881104F47B74EA
:1051200064F352216FF3DE416FF3DF7100231F48F8
:10513000FEF75CF9AD463468A0E76FF00041CCE7BC
:105140006FF01B04D5E72A4601213046FFF74EFDDC
:10515000044693E72A4601213046FFF7D1F9044679
:105160008CE7184D40F2D7232A461749174809F013
:1051700020FE174809F01DFE40F2D721284609F00D
:1051800011FE7BE70F4D40F2DB232A460E490F4804
:1051900009F00FFE0F4809F00CFE40F2DB21284613
:1051A00009F000FE6AE700BF740F01006C01010006
:1051B00000ED00E0C00F01008C0F0100B00F0100F6
:1051C000E00F0100C80E0100341901005004010075
:1051D000FC0F010020100100F0B591B03F4B5D685D
:1051E000C5F30805002383F31188BFF36F8F02F026
:1051F0007F43B3F17F4F42D102F00C03082B13D051
:1052000012F0080F38D00C460026002C3AD00DF1D1
:1052100027022946204609F071FF05469DF82730F0
:10522000002B40D011B0F0BD2D4B0F9302238DF811
:10523000003000248DF801408DF802408DF80340C5
:10524000009B0E93214664F3000164F3410164F373
:10525000820164F3C501012363F38811082363F31A
:10526000522164F3DE4164F3DF7123460EAA1D4828
:10527000FEF7BCF82646C8E704460126C5E7002627
:105280003446C2E7184F40F205433A4617491848DA
:1052900009F08FFD174809F08CFD40F205413846B2
:1052A00009F080FDB3E72022214601A809F0A8FFFC
:1052B0004EB1089BC3F308025AB96FEA53236FEA51
:1052C0004323089305E0089B23F4FF7323F00103B5
:1052D000089301A9284609F0F1FEA3E700ED00E0DC
:1052E000501001006C010100C80E01007C1001008B
:1052F0005004010090100100024A536943F010036A
:105300005361704700ED00E0EFF30880EFF309818F
:1053100001B57246FFF760FF01BD00BF002206E045
:1053200002F00F01094B0B442021197601322F2A7C
:105330000ADC53B2002BF3DB03F1604303F5614356
:10534000202183F80013F1E7704700BFFCEC00E078
:10535000002013490870002080F31488BFF36F8F7A
:10536000FDF7F0FB00200F490860BFF34F8F0E4898
:1053700080F3088800F030F8202080F311880B4873
:105380004FF40461401880F30988EFF31480022180
:10539000084380F31488BFF36F8FFEF7AFFF000060
:1053A000D312002094ED00E0401F002000210020D7
:1053B000084BD3F89000C0F30720002306E0054A0D
:1053C000C2F898300021C2F8A01001338342F6DB06
:1053D000704700BF00ED00E010B572B6002484F302
:1053E0001388FFF7E5FF234608E003F120010E4A8A
:1053F0004FF0FF3042F821000133DBB2072BF4D924
:10540000002308E003F16001074A4FF0FF3042F843
:1054100021000133DBB2072BF4D962B6BFF34F8F03
:10542000BFF36F8F10BD00BF00E100E008B50A4B6D
:105430009B68834202D008F08DFA08BDEFF3058324
:10544000002BF8D0054B5A6842F080525A605A6AD5
:1054500022F400425A62EEE79010002000ED00E0D6
:1054600008B5034B034A0121034800F021F908BDA8
:105470000000042000000020D410010008B5D0F87E
:105480009830403B0448036040234360034B8360F3
:10549000012100F02FF908BD4C0F002000000B1572
:1054A000084AC2F898000B6823F01F03034343F037
:1054B0001003C2F89C308B6843F00103C2F8A0309F
:1054C000704700BF00ED00E0B0B582B000AF044609
:1054D000072805D8FFF7E4FF20460837BD46B0BDD2
:1054E0006D4688B06B4613F1100231D00C211AB111
:1054F000042901DD1948586112B1082900DD9C61B9
:105500000B2928DD0C243AB103213971002179716E
:10551000B971F9717868186100216FF300016FF3B8
:1055200041016FF382016FF3C501012363F3881119
:1055300004F47B7464F352216FF3DE416FF3DF7187
:1055400000230748FDF752FFAD466FF01500C4E792
:105550006FF00041CBE76FF01B04D4E7E0100100CF
:105560005C0101002DE9F04782B000AF814688461A
:105570009A46164600250FE06FF0004124E06FF0D8
:105580001B042DE02146F0B209F0EEFD064610F1B5
:10559000160F49D001360135454545DA05EB45047E
:1055A00009EB84046268002AF5D0BAF1000FE9D053
:1055B000204609F0C8FD0028E4D16E4688B06B464D
:1055C00013F11002D8D00C211AB1042901DD1948B9
:1055D000586112B1082900DD9D610B29CFDD0C2433
:1055E0003AB10321397100217971B971F971786883
:1055F000186100216FF300016FF341016FF3820125
:105600006FF3C501012363F3881104F47B7363F323
:1056100052216FF3DE416FF3DF7100230648FDF77F
:10562000E5FEB5466FF0150630460837BD46BDE8C5
:10563000F08700BF081101005C01010010B5034CA8
:1056400001232278FFF78EFF207010BDCD120020BD
:1056500008B50023094A1278FFF784FF10F1160FEE
:105660000AD0034606E0064AC2F898300021C2F884
:10567000A0100133072BF6DD08BD00BFCD120020BE
:1056800000ED00E0044B0522C3F89420BFF34F8FD8
:10569000BFF36F8F704700BF00ED00E0BFF35F8F77
:1056A000024B0022C3F89420704700BF00ED00E0D9
:1056B00038B50C46FFF7C2FF10F1160F00D038BD09
:1056C000084D4FF48B732A460749084809F071FBCF
:1056D0002146074809F06DFB4FF48B71284609F00D
:1056E00061FBECE72C1101003419010050040100AA
:1056F0006411010038B50C46FFF7AAFF10F1160F30
:1057000000D038BD084D40F235132A4607490848F5
:1057100009F04FFB2146074809F04BFB40F23511D9
:10572000284609F03FFBECE72C1101003419010079
:10573000500401009011010038B5244B1D68082D5C
:1057400003D8FFF7ABFF00241EE0214C40F24D13BD
:1057500022462049204809F02CFB082229461F48F0
:1057600009F027FB40F24D11204609F01BFB4FF0DA
:10577000FF3017E0154B596804EB440293001944BD
:105780002046FFF78DFE0134A542F3D8144B1D705F
:10579000FFF778FF134BD3F89030C3F30723082BA0
:1057A00001D1002038BD0A4C40F2AD1322460E490B
:1057B000094809F0FEFA0D4809F0FBFA40F2AD1174
:1057C000204609F0EFFA0020ECE700BF7812010054
:1057D0002C1101003419010050040100C011010016
:1057E000CD12002000ED00E0F41101004412010090
:1057F000014B1860704700BF6400002010B54FF0E7
:105800002003EFF3118483F31288BFF36F8F01231A
:105810000C4AC2F840354FF08042C2F8783509F0A2
:105820003FFD20B14FF080430122C3F838264FF0EE
:1058300080430122C3F8802584F31188BFF36F8F62
:10584000002010BD00E00140C0B24FF08042C2F81D
:105850001C05BFF34F8F0549CA6802F4E062044B90
:105860001343CB60BFF34F8F00BFFDE700ED00E0B7
:105870000400FA0530B108B58001034B43F0010381
:10588000984708BD704700BFF0010100004870470D
:10589000B00F0020014BC01A40117047680F002064
:1058A00030B583B005460C46FFF7F4FF01464023B0
:1058B00000932346054A064809F081FD011E01DBDD
:1058C00003B030BD2846A047FAE700BF07F4000048
:1058D000F0FE000008B50A4BBFF35B8F53E8002FC2
:1058E00022F0020143E800100028F7D1BFF35B8FDC
:1058F00012F0010F00D008BD09F097FDFBE700BFD3
:10590000C00F002070B50546CCB2012C07D8214647
:10591000284609F0E7FC806800F0070070BD064EDD
:10592000792332460549064809F043FA7921304681
:1059300009F038FAEBE700BF9C120100DC1201000D
:10594000500401002DE9F04107461646CCB221462D
:1059500009F0C8FC0546012C0FD8314605F10800B6
:1059600009F0D1FC002806DB2146384609F0C1FCCD
:10597000436898470020BDE8F081DFF81C8040F2C2
:105980004D1342460549064809F013FA40F24D11FD
:10599000404609F007FAE0E79C120100DC12010022
:1059A0005004010038B505460C46FFF773FF014669
:1059B00040220348FFF7C6FF01462846A04738BDEE
:1059C000F0FE000010B501281DD0032820D068B1DA
:1059D000164C40F2622322461549164809F0E9F9AF
:1059E00040F26221204609F0DDF910E00021124862
:1059F00009F078FC836813F0070F08D100210E48E6
:105A000009F0CBFC03E001210B4809F0C6FC10BDF6
:105A1000064C40F25E2322460549064809F0C9F9C2
:105A200040F25E21204609F0BDF9F0E79C1201002A
:105A30003419010050040100F0FE000000B585B0EB
:105A4000CDF800D0CDF804D00023029301230393B6
:105A50006B46074A09F0CFFC002805DB4FF4804273
:105A60000023684606F0A2F805B05DF804FB00BF0D
:105A700049F4000070B50646002201211046FEF7E9
:105A800003FC114802F094FF104B984219D102F028
:105A9000B9FF0024012C12D82146304609F022FC1F
:105AA00005462146304609F02AFC094909F0BEF8AE
:105AB000002805DB0123AB601C44E4B2EAE70020C8
:105AC00070BD6FF00400FBE7C55900000000AD0B8E
:105AD0006413010070B50546012807D14FF08043DB
